:020000021000EC
:10C0000000400020712E0200AD2E0200AF2E020073
:10C010000000000000000000000000000000000020
:10C02000000000000000000000000000B12E02002F
:10C030000000000000000000B32E0200B52E020038
:10C04000B72E0200B72E0200292D0200B72E0200E3
:10C05000B72E02000000000085220200B72E020069
:10C06000B72E0200B72E0200852B0200B72E020069
:10C07000B72E0200B72E0200B72E0200B72E020024
:10C08000B72E02003D320200B72E0200B72E02008A
:10C09000B72E020011D20100E9EB0100B72E020019
:10C0A000B72E0200B72E02000000000000000000C2
:10C0B0000000000000000000000000000000000080
:10C0C00010B5064C2378002B07D1054B002B02D06E
:10C0D000044800E000BF0123237010BDA029002008
:10C0E0000000000058710200044B10B5002B03D073
:10C0F0000349044800E000BF10BDC0460000000036
:10C10000A429002058710200164B002B00D1144BBB
:10C110009D46402292029A1A924600218B460F4673
:10C120001348144A121A08F0FBFC0F4B002B00D0E6
:10C1300098470E4B002B00D09847002000210400A8
:10C140000D000D48002802D00C4806F052FA08F005
:10C150000DFC2000290006F0F0FC06F047FAC0466E
:10C160000000080000400020000000002F2B02000B
:10C17000A029002054300020F32502000000000018
:10C18000704710B50368002B01D00800984710BD18
:10C1900002000B00F0B5126889B0019203AA1500E5
:10C1A0001E004068016889688C4692CE92C5DB68A3
:10C1B0000199D36000231361E04709B0F0BD00008E
:10C1C00070B50400002521600E0045600C22083087
:10C1D000290008F0A5FC094BA5616361AE420AD1B4
:10C1E000074D2B68002B02D105F0ECFD2860236879
:10C1F0009B00EB586360200070BDC04683C1010006
:10C20000E029002070B500280DD1124C2668002EC0
:10C2100007D11C3006F068FB05003100FFF7D0FFA6
:10C220002560206870BD01260B4D2B78BFF35B8F16
:10C230000A4C334201D02000F4E7280006F0EAF966
:10C240000028F8D031002000FFF7BAFF280006F0E0
:10C25000FDF9F0E7C0290020BC290020C4290020F6
:10C26000436810B50400002B02D1044807F00EFF0C
:10C27000606803689B69984710BDC04688610200EA
:10C28000436810B50400002B02D1044807F0FEFEFD
:10C29000606803681B6A984710BDC0468861020049
:10C2A000436810B50400002B02D1044807F0EEFEED
:10C2B000606803685B6B984710BDC04688610200E8
:10C2C000030007B59A680830002A06D0034A002AFE
:10C2D00003D0019301A95B69984707BD81C10100A3
:10C2E000704710B50800FFF78DFFFFF7E9FF10BD9D
:10C2F000F7B5FA26B6007143009308AB1B7804002B
:10C30000080013491700019309F07AFB85B2300049
:10C31000258078430E4909F073FB009B80B2A3800F
:10C32000019B6080A371032D01D804232380802307
:10C330002288DB019A4200D92380032801D80422F5
:10C34000628062889A4200D963802000FEBDC046A8
:10C350007102000010B50368002B01D00800984757
:10C3600010BD10B50368002B01D00800984710BD20
:10C3700010B50368984710BD002801D00B68036012
:10C380007047704710B50368002B01D0080098472C
:10C3900010BD10B50368002B01D00800984710BDF0
:10C3A00010B50368002B01D00800984710BD37B5C1
:10C3B00004680D00002C0ED0011D0822684608F00C
:10C3C00093FB019A009B50102018D20701D50268F8
:10C3D000D3582900984737BD10B50400064B0360B9
:10C3E000064B30300360064B436007F05DFF2000D2
:10C3F00007F0F4F8200010BD906C0200B06C020051
:10C40000106D020008B4024B9C46303808BC6047EF
:10C41000D9C3010008B4024B9C46343808BC6047BD
:10C42000D9C3010010B5821A9408A400605C0919F0
:10C430004B781B020343887800040343C878000646
:10C44000184303231A409A40D04110BDF0B599B06B
:10C4500012931EAB0E9204CB019102925A68039381
:10C46000049204998F228C46D20062440D92C54AF0
:10C47000002362441592B122D200624411921F9AA5
:10C4800017900B929F22D20062441492A022D200F5
:10C4900062441092BC4A009362441392BB22D200C1
:10C4A00062441692C222D20062440F92D3220D9BA4
:10C4B0000593002308930A930320009B01999B0096
:10C4C000CB18196806930B09184009900520029BA8
:10C4D00092005B430343029892081B181F200340FD
:10C4E0000998012800D151E1002800D19BE00228E1
:10C4F00000D1DAE1594259418907114307910721D7
:10C50000009A1020971F0F40019ABF00D7193E686C
:10C510000D003200C2415A40039B100099685C68CC
:10C52000029209F0F3FA0B190993039B2200196890
:10C530000998FFF777FF009B019A073B2B409B0070
:10C54000D3180A22D6412900059A84465640089AF3
:10C550004918B618009A1E60541F2C40019AA40076
:10C5600014192068009AC8410100023A2A40019D2E
:10C570009200AA18156869408E190721009D3E6037
:10C58000281F0840019D8000281805680B31CD4107
:10C590002900099D71404D1907212560009C019ECD
:10C5A000033C0C40A400341926680F31CE410168C9
:10C5B0004E401A21751905601668CE417540169EC9
:10C5C0001339AD192560009C601E08400199800058
:10C5D00008181E210668CE416E4066441660069A11
:10C5E0000B99126808920822089DD541079A754058
:10C5F000AD18056010201E683A68C6415640069A7C
:10C60000751915601A680598504060441860029BBF
:10C61000049A58150F9BC018FFF704FF0F9B089052
:10C6200093E00E9343E7002B02D18020C0050990D0
:10C63000099810431C22D1415940039B0291079055
:10C64000996802985D6809F061FA039B4C192A0009
:10C6500019682000FFF7E6FE0721009B8446581E5C
:10C660000840019B80001818009B019A073B0B4073
:10C670009B00D318022206680D00D6411A68059F58
:10C680005640089AB618069A1660009A023A0A406E
:10C69000019992008A180421CF4111687E407618D2
:10C6A00000990660CF1E2F400199BF00CF190621C7
:10C6B0003868C84100994640081F28400199800009
:10C6C00008180821341914600668CE411399744083
:10C6D00064183C6000992F004E1F2E400199B6004F
:10C6E0008E190A21079DCD4131686C40641800996C
:10C6F0000460881F38400199800008180C210568E3
:10C70000CD4165406544356014680E22D4411A68F5
:10C710006540AD1810220A9C0560D441069A654018
:10C7200012680598AD181D60069B049A1B680B994A
:10C7300008935840069B60441860029B98150D9B17
:10C74000C018FFF76FFE0D9B089007220593009B12
:10C7500001331A4000928022079B92051A430A9BDC
:10C7600001330A930A99179B8B4200D3A4E60E99D2
:10C770000E9B039112990C33481E129000D350E780
:10C7800019B0F0BD5C0500003C040000594259415D
:10C79000072789071143009A0791D41E3C40019A4C
:10C7A000A4001419266818213200CA415A40039B7C
:10C7B000100099685F68029209F0A8F9039BCD19EF
:10C7C0003A0019682800FFF72DFE0727009B8446D2
:10C7D000181F3840019B800018181223059ADA416F
:10C7E000089B5640F618009B06609A1F3A40019B32
:10C7F00092009A1814231168D941009B7140053B9F
:10C8000049193B40019D9B005951009B023B3B4015
:10C810009B00EB18009DEE1F3E40019DB600AE1937
:10C8200016251F68EF413D004D403168079F6D1888
:10C830001821CF4115607D400727069909686D18BA
:10C840003560089100994E1E3E400199B6008E1940
:10C850001A213768CF416F401568069A7F19176013
:10C860001C220A99D1410A0019687A4052181E21E7
:10C8700032602768CF417A4062441A6007681A39EB
:10C88000CF4114997A40521822601A6805980B9982
:10C89000504060441860029B049A9815109BC01881
:10C8A000FFF7C0FD109B08904FE7594259410726FA
:10C8B0008907114307911421009A141F3440019AEB
:10C8C000A40014192268CA415A40039B10009968B9
:10C8D0005D68029209F01AF9039B4F192A00196842
:10C8E0003800FFF79FFD0821009B84469A1E3240C6
:10C8F000019B92009A181568009BCD41053B019859
:10C9000033409B00C3180C93009B0139981F3040A3
:10C91000019B800018180C9B1B685D40089BED185C
:10C92000009B0560DE1F0E40019BB6009E19059B13
:10C930000531CB411900069B69401B68C91831605D
:10C9400007210893009BDD1E0D400931CF41019B5B
:10C95000AD005D192B6804315F400C9B1B68FF180C
:10C9600027600368CB411900079B7940C9180C9BCD
:10C9700019600721009B2F68013B0B4001999B0028
:10C98000CB181821CF4119684F40674417602168C0
:10C990001C24E141159C7940091929601968099CFA
:10C9A0000068E14134686140091806980A9C0160FA
:10C9B0000620C441200048401168059A40185040A4
:10C9C00060441860029B049A9815119B0B99C0183B
:10C9D000FFF728FD119B0890B7E6C046030010B58D
:10C9E0004E334A881B889A420BD10A89142A08D8E8
:10C9F000030000242D331A705C700430C96808F0FD
:10CA000073F810BDF0B5274B8BB01B68002B46D0D8
:10CA10004E3342881B889A4241D10389224F0493A6
:10CA20000023C068C15C9A000133D151082BF9D1B1
:10CA30001E4B1F4D07930893E6232800DB00099344
:10CA400006F088FC280006F0DCFC07AC059001AB82
:10CA500007CC07C30024174800942300220016497E
:10CA60000068FFF7F3FC280006F0CBFC0600280066
:10CA700006F09DFC059B1148F21A1149303007F071
:10CA800025FC084B0F481B68A2331D88FFF7F8FBF5
:10CA900003680094DC683A00049B2900A0470BB0AF
:10CAA000F0BDC046C82A0020E42900204DC4010082
:10CAB000A82A002004280020382A0020582A002014
:10CAC000F8610200042A0020002370B50E4CE356E2
:10CAD000013304D12C220D490D4806F0A3FE6369F1
:10CAE0001D6863681D400023E356013304D12422EE
:10CAF0000649074806F096FE6368002D02D1E268F9
:10CB0000136070BD2269FBE7202A00200462020046
:10CB10004C620200F7B501920400C07F1D00C318EB
:10CB20000F0001261D2B1ADCA9193200201807F06E
:10CB3000F7FFE07F32008019C0B2E077390020189B
:10CB400007F0EEFFE07F2A0080190026C0B2E077F0
:10CB50000199201807F0C8FFE37FED18E577300052
:10CB6000FEBD0000F7B5089C0600152922D801205B
:10CB700007008F40254D2F421CD0F17FCD181F2D6F
:10CB800043DC71182518A94210D80021C8B283428D
:10CB900004D9555C601885700131F7E722789A183E
:10CBA0002270F27F9B18F37700202EE00878C8549B
:10CBB0000139E8E72578013DEDB2AB4208D1002309
:10CBC000D9B28D42F0D9D05CE11888700133F7E713
:10CBD000F77F01207F1BFF181F2F16DCA81C2418CD
:10CBE00002204042401B0190F07F3718BC4204D223
:10CBF0002078019FE0550134F6E702246442651B6A
:10CC00004019F0773000FFF785FFFEBDFC002000E3
:10CC1000F7B50024C67FA64205D905196F788F4263
:10CC200004D1002D07D1FFF775FF07E0055D013541
:10CC30006419E4B2EFE70095FFF794FFFEBD70B50D
:10CC400006008AB00A360C0022223100050001A835
:10CC500007F04AFF6B46DA1C012301A81900147083
:10CC6000FFF7D6FF041E0DD12A002B6834329B6FCC
:10CC700001A928009847041E04D1222201A93000EE
:10CC800007F032FF20000AB070BDF0B505000E00BD
:10CC900017008DB00A3522222900040003A8019351
:10CCA00007F022FF3100019B3A0003A8FFF7B0FF15
:10CCB000061E0DD12200236834329B6F03A9200089
:10CCC0009847061E04D1222203A9280007F00CFF72
:10CCD00030000DB0F0BD70B5040001302600030037
:10CCE000002511361D7001339E42FBD10123658260
:10CCF0002370002A08D10B001033994207D0013B62
:10CD00001A7802700130F8E7102207F0F6FEA27BD5
:10CD1000637B120213432000638270BDF0B50400F0
:10CD200085B001930AAB1E880BAB1B78451C0293A0
:10CD30000EAB1B78170003930B78102203704B8AFD
:10CD400001314382280007F0CFFE2683002601220E
:10CD5000019B67616383039BE6832377029B20002B
:10CD6000EB77A31CDA770C9B0C25636223000D9AEA
:10CD700028331A705E709E702A0031002C3007F044
:10CD8000CFFE2000064BE663A3632A00310040304B
:10CD900007F0C6FE2000034B2665E36405B0F0BD36
:10CDA00063C3010055C3010010B5FFF759FA0368CA
:10CDB000011DDB6F04009847002804D1012358347B
:10CDC00022781343237010BD10B5074C0749303447
:10CDD000200007F07BFA0649200007F077FA0548A3
:10CDE000FFF7E2FF10BDC046582A0020646202002F
:10CDF00076620200042A0020F0B502000700183213
:10CE000099B002C7069204003B00002206991A70EE
:10CE100001339942FAD122000B002C320021197003
:10CE200001339342FAD12300002210AD2E33A285A4
:10CE300037491A702800FFF74EFF0C230126002205
:10CE40002000019308332900049603920292009374
:10CE50003A00330030300790FFF760FF00222D4981
:10CE60002800FFF738FF14230496009333002600B0
:10CE7000002210218436039202920191069A290021
:10CE80003000FFF74BFF079B0A960BAE00222249AA
:10CE900030000993FFF71FFF252139203378102236
:10CEA0002B70738A09AF6B8202ABC918C01807F0E8
:10CEB0001BFE002202232068AA832B75AF61FFF7B7
:10CEC000DFF9036829001B6898472068FFF7D8F945
:10CED0000700142005F008FD05000C22002107F0D2
:10CEE0001FFE002228000D4BEA602A610C9210C040
:10CEF000083231000B9307F0F7FD094BEB60BB697B
:10CF0000002B03D12000BD6119B0F0BD2B61F9E702
:10CF1000BB610200AB610200CB610200DDC9010010
:10CF2000AFC30100C36810B50400002B01D09B689B
:10CF30009847200010BDCB6870B504000D00002B91
:10CF400001D05B689847EB682000E36070BD00008B
:10CF50000023F0B56E4CCFB0E356013304D1242248
:10CF60006C496D4806F05EFCE368626808A81A60C8
:10CF700006F078F9694B1022002112A8089307F0F7
:10CF8000CFFD01231022002116AC03A8237007F067
:10CF9000C7FD634B03A90393624B18A80693FFF7E1
:10CFA000CAFF06F05FFE159B002B04D12378002BEF
:10CFB00001D006F08DFB18AC12A8FFF7B3FF2100DB
:10CFC00012A8FFF7B8FF0023574A08A806F0E1FBB4
:10CFD00003AE06F05DFE2000FFF7A4FF3000FFF770
:10CFE000A1FF52485249303007F070F900210C225D
:10CFF000300007F095FD3200230023CA23C34D4BB8
:10D000004D4DE3600023210028002361FFF7C0F8A5
:10D010000822002104A807F083FD2800FFF720F96B
:10D02000464B01900393230007CE07C3142005F05D
:10D030005BFC424B220018930300C2CAC2C3404BA0
:10D04000C36000230361019BA4331A68002A5AD1EC
:10D0500018602800FFF714F908220021019019A890
:10D0600007F05EFD142005F03FFC364B22001893BC
:10D070000300C2CAC2C3344BC36000230361019BD7
:10D080009B69002B41D1019BFA2798612800FFF78B
:10D09000E7F80421FFF7D3FD2800FFF7E1F80023AC
:10D0A00003712800FFF7DCF80823284A1900FFF76E
:10D0B000ECFD2800FFF7D4F81023254A0721FFF7DD
:10D0C000E4FD2800FFF7CCF8036806009B6898474A
:10D0D000BF0003003800BB4203D9336830009B68AF
:10D0E00098471C49784308F08BFCF0802800FFF734
:10D0F0005BFE29002000FFF77FFE174B1C60280015
:10D10000FFF7CEF8FBE70261A2E70361BBE7C04689
:10D11000202A0020046202004C620200746B0200AC
:10D12000C9CA0100EC61020040420F00582A0020E9
:10D130009B62020085C30100042A0020C9CD0100C2
:10D14000A1C3010005CA010093C30100B762020038
:10D15000DB61020071020000C82A002010B5040043
:10D16000FFF73AF9200005F0D3FB200010BD08B40A
:10D17000024B9C46303808BC6047C0465DD1010078
:10D1800008B4024B9C46343808BC60475DD10100AE
:10D1900037B500211348FFF713F8134C182200216C
:10D1A000200007F0BDFC1221200006F0BCF80F4C57
:10D1B000200006F03AF90E4D0E492A00200005F035
:10D1C00013FA96230C4C9B0100930B220023092198
:10D1D000200006F0B1FD2A000849200005F004FAFD
:10D1E00037BDC046042A0020202A0020A82A00209B
:10D1F0000028002031330200582A0020D9C3010042
:10D200002EDF704732DF704733DF70474CDF7047E7
:10D210000120054B10B51A7850401870034B1B685D
:10D22000002B00D0984710BDD02A0020CC2A002027
:10D230000C4B70B5050015200C001A60FFF7E2FFDB
:10D2400000280ED129001530FFF7DEFF002808D195
:10D250001530FFF7D5FF002803D121000330FFF779
:10D26000D5FF70BDCC2A002010B50400064B03602A
:10D2700006F0A7FA20002830FFF754FE200006F041
:10D2800019F8200010BDC046746B020010B50400F0
:10D29000FFF7EAFF200005F03BFB200010BD000077
:10D2A00010B50B4C200005F0DDFF2000094B1022CB
:10D2B00000212830236007F033FC2300012238339B
:10D2C0001A700549054A200005F08EF910BDC046C8
:10D2D000D82A0020746B020069D2010000280020C7
:10D2E0007FDF704782DF7047A7DF7047A9DF704795
:10D2F000AADF704700207047002070470020704769
:10D30000F7B504000E006A468178204801F096FACD
:10D3100000283AD10C2362781D4F5A431D4B9B18AD
:10D320009B7A5B0605D4022E03D01B4F012E00D042
:10D330001A4F1C25A3781A496B432A00C91868465E
:10D340000023B84700281ED1022E1ED00C2261787F
:10D35000104B4A439B189A7A4030694382439A7231
:10D36000104B2A00591868462B00B8470C23227826
:10D3700021005A430C4B68469B189B7A0B4A9B0032
:10D380009B58984701E0022EF0D1F7BDA42B002056
:10D3900001E90100402B002089E80100F5D20100DD
:10D3A0006C2B0020242B0020182B0020E0620200B0
:10D3B000F7B518220190437828485A4381184C68E1
:10D3C000274F002C30D00C2159437918897A4DB25F
:10D3D000002D28DA490626D41500A6B208351458BF
:10D3E00045190C225343FB181889320023002900E9
:10D3F000FFF77CFF0B281AD10C22019B29005B78D8
:10D400005343FB18188932000123FFF76FFF0C21EB
:10D41000019B144A5B784B43FF183889FFF764FF80
:10D4200000280AD1FEBD002426002500D9E70028E7
:10D4300000D00D48012CF5D1E9E702220B4BC318AF
:10D44000934308D0082806D0113843425841064B70
:10D4500040421840E6E70448E4E7C0464C2B002071
:10D46000402B0020FFFF000041800000FECFFFFFA7
:10D4700010B5FFF79DFF10BDF0B589B002AB9D1D43
:10D480000E230C27019000912B804B78224A7B437E
:10D49000D31818892A00032304A9FFF729FF0028BD
:10D4A0001AD11826009B1D4C58782A8870430830E2
:10D4B000201804A907F009FB009B5B7800280ED117
:10D4C0005F43154AD7190222B97A114004D1734338
:10D4D0003200E01807F024FB002009B0F0BD5E43E5
:10D4E000A61972680E4F002A00D10E4F182603228B
:10D4F0007343E2502A88E11808334A60E01804A90F
:10D5000007F0F2FA009B32005978019871433823F2
:10D510006118B847E0E7C046402B00204C2B0020A4
:10D5200001E9010089E8010010B5FFF7A5FF10BD72
:10D53000F8B5182507004878094C68430E002018F4
:10D5400038232A00390001F017FA002806D1737831
:10D550005D4364196368013300D16060F8BDC04663
:10D560004C2B002010B5FFF7E3FF10BD00207047E3
:10D5700000207047002070470020704770B51C25C0
:10D580004543060028000D4C11302018062264196E
:10D59000002107F0C5FA10220021200007F0C0FA90
:10D5A000FF232374A376013BFF3B23830233B34065
:10D5B000034A11689943116070BDC0466C2B00206E
:10D5C000682B002037B581B205006A46074801F094
:10D5D00035F9041E08D15421684601F019FA041ED9
:10D5E00002D12800FFF7CAFF20003EBDA42B002077
:10D5F000F0B51C00454B93B01B68070000910192E9
:10D60000002B41D0189B542B3ED80021404B06AE36
:10D610000393189B04AA3F4831700B940A9301F0BE
:10D620000DF9051E06D1082204A9380007F04DFAAD
:10D6300000280ED004AA0121364801F0FFF8002886
:10D6400009D1082204A9380007F03FFA002802D1C6
:10D65000012503AB9D7003ADA978FF2914D0009B71
:10D66000032B15D1189A06AB542A0FD1343A1A70ED
:10D67000032219780A431A7009AB0793234B019AC6
:10D680001B6806A92800984713B0F0BD4022EEE7BA
:10D69000214BE31A372B16D82048019A0368002A39
:10D6A00003D101328A401342EED001228A409343D3
:10D6B0002022036006AB1A70009A06AB1978022A82
:10D6C00021D10122D6E7164BE31A1B2B08D82023C1
:10D6D000337000236B700CAB0B9318230A93EBE7AA
:10D6E0001048241A172CCFD83023337000236B70C6
:10D6F0000133EB700C4B997A02231940DCD11822CC
:10D7000007F00EFAD8E70222B4E7C046182B002033
:10D7100000FFFFFFA42B00206C2B0020682B0020B3
:10D72000242B00204C2B0020402B0020F0B50500BE
:10D7300085B000285CD000242E4B01261C605C7252
:10D740009C72FF232C485B427642438121000722D2
:10D75000068107F0E5F921001822284807F0E0F9D2
:10D760002000FFF70BFF264C01202670FFF706FF75
:10D77000FF236370234B244C0193244B2100684604
:10D78000009300F0FFFF002827D10127204E2B78BF
:10D790003770002B23D1010002AA200001F04EF8BF
:10D7A000002818D11B4D03001C2202A9280001F0FB
:10D7B000E3F800280FD102AA3900200001F03EF85A
:10D7C000002808D11C3503001C2202A9280001F002
:10D7D000D3F8002801D00023337005B0F0BD6B46AC
:10D7E0009988DB882000594389B201F011F9F4E7E8
:10D7F0000948F2E7182B0020402B00204C2B00207A
:10D80000642B002054000200A42B0020F1D501005D
:10D81000662B00206C2B00200E800000F8B5174B03
:10D8200006001B780F00002B22D0002822D00029F0
:10D8300020D00B68002B1DD0114D2C68002C1BD163
:10D840002800053108C0052207F04EF90121022207
:10D8500004203B79AB722B7A8B43134383432B72A7
:10D86000EB7919430A4382432000EA713470F8BD12
:10D870000448FCE70448FAE70448F8E7662B002070
:10D88000182B0020088000000E800000048000009B
:10D89000154B1B78002B22D000281ED000291CD04D
:10D8A0000378002B1BD1114B1B68002B17D042783B
:10D8B000002A16D10E4B9B7A012B12D0242018403F
:10D8C00003D0012310000B7070475BB2002B02DA0B
:10D8D00002230B70F8E70870F6E70648F4E70648FD
:10D8E000F2E70648F0E7C046662B0020182B002020
:10D8F000402B00200E8000000880000010800000F7
:10D90000344BF7B51B78002B61D000285DD000297F
:10D910005BD00C68002C58D08E68002E55D0037850
:10D92000002B54D12C4B1B68002B50D02B4B987ADA
:10D93000DF7A022318400190002F23D00B7B002BAD
:10D9400013D100220D79954206D0254DA87E80077F
:10D9500002D4103525600132012F18D1019800281A
:10D9600015D000200A710B73FEBD1D4D0122AB7E48
:10D970009C46604600231042E3D13560194D2B7060
:10D980001300DEE7019B002BD8D03B003A00087B58
:10D9900098420CD91248050036352F7801252F42C0
:10D9A00005D19F001C30B8510E48C5545B19087949
:10D9B0009042D6D90A48050036352D78AD07D0D427
:10D9C00095002C3028510132CBE70748CCE70748B7
:10D9D000CAE7C046662B0020182B0020402B0020F1
:10D9E0006C2B0020642B00200E80000008800000BB
:10D9F0000F4B10B51B78002B18D0002814D00078DE
:10DA0000002813D10B4B1B68002B0FD00A4CA37EB0
:10DA1000FF2B01D0FFF7D6FD36342378FF2B02D041
:10DA20000120FFF7CFFD10BD0448FCE70448FAE7EA
:10DA3000662B0020182B00206C2B00200E8000008D
:10DA40000880000013B5040081786A460B4800F096
:10DA5000F5FE002810D11C2263780948534369461B
:10DA6000C018130000F088FF064B074A9B7A21007C
:10DA70009B009B586846984713BDC046A42B0020C6
:10DA8000242B0020182B0020D0620200FF23F0B5C9
:10DA90008FB00393C04B05001B78002B3ED0BF4BCB
:10DAA0001B680193002B39D0031D06932A2302AA79
:10DAB0009382BB4BBB4C04930388A27A102B29D0D2
:10DAC0008188900707D5B848814200D13DE120897F
:10DAD000884200D139E1172B00D1D3E000D93AE1D7
:10DAE000132B63D0142B3FD0112B17D1022311001D
:10DAF0009943A17204AD12072ED54BB2002B03DA65
:10DB000000212800FFF7FCFB1023A372023302AAB6
:10DB1000137317E00126324200D053E10FB0F0BD7D
:10DB2000A24A5B08D35CFF2B00D003930822A17AA2
:10DB3000039B0A43DBB2A272E37202AA04A89372A7
:10DB4000FFF780FF002472E02A8B974B9A4200D0A7
:10DB500063E13E000396E9E7A878FF28D4D0FFF7F9
:10DB60000DFDFF23AB70CFE7E37A914EFF2B10D171
:10DB7000EB89318B994217D0B18E994209D101239B
:10DB80000821DBB20A4304A8E372A2728370FFF794
:10DB900059FFE37A8749FF2B00D10021A888002391
:10DBA0003200FFF79FFBB9E70023E9E7132302A93F
:10DBB0000B730F3B1A43E37AA2727D4EFF2B53D1B6
:10DBC000B37EFF2B07D0330036331B780127FF2BA2
:10DBD00002D0794C15E000271C20784323783018B8
:10DBE000022B3ED0FD23103083720722210006F065
:10DBF0007BFF03AB1F70039B04AADBB29370E3723D
:10DC000000240021674B0B91DA7A1C235343F6184A
:10DC1000684B0C960893614B0D9109910A911A1D5E
:10DC2000A88808ABFFF75CFB002800D076E75B4BC9
:10DC300022001B6805A904A8984702AB1B7B122B86
:10DC400000D06BE75748837A012B00D166E70123A8
:10DC50005B420381FE3B43810722002106F060FF07
:10DC60005CE7FE238376C4E71623544802AA1373A5
:10DC700000210E22083006F053FF4023A27A1343FE
:10DC8000A372BDE70126454B44495B7A1420B34398
:10DC90004B72042343499A4302AC8A722073A879D9
:10DCA000002804D0C87AFFF78DFCAC79BFE7E8798B
:10DCB000184200D146E704ACA078FF2800D141E724
:10DCC00008231A43EB7A8A729B0706D51C2242432B
:10DCD000374B9B189A7EB2439A76CB7AFF2B00D1B2
:10DCE00030E71C234343324D0A78ED18022A0DD049
:10DCF00028000722103006F0F7FE0222AB7E934385
:10DD0000AB7601212000FFF7FBFA1BE7294B01222C
:10DD10005B8A2B83AB7EF2E780235B421A43A272BD
:10DD2000953302AA13731D4B254A9B7A04A89B00C6
:10DD30009B58984706E7194B214A9B7A04A89B00F9
:10DD40009B589847EAE61323E1E6E07A04A9887035
:10DD500000204870BFE61C2BF5D0522BEBD0182BBF
:10DD600000D0DBE6AB79112BD6D11307D4D51348FD
:10DD70000E220021083006F0D3FE162302AA1373E8
:10DD8000A27A4A331343A372044B5A7A02231343F1
:10DD9000024A5372D6E6C046662B0020182B00209C
:10DDA00000FFFFFF402B0020FFFF0000642B00203E
:10DDB0006C2B0020242B0020438000004C2B0020E3
:10DDC000C0620200112302AA1373002353728388D6
:10DDD000871D238102230722A3723900200006F049
:10DDE00083FE6B7D334200D09AE60E4D002F00D1AA
:10DDF000AAE6280007221030390006F066FE002847
:10DE000001D10600A6E6280007222C30390006F0D2
:10DE10005CFE002800D095E69CE6AA8E9A4200D0CF
:10DE200090E697E66C2B002030B5002913D00A78D5
:10DE3000002A12D10A4B1B68002B0ED0FF23094C7D
:10DE40008B702589FA3B854203D14A70E37A8B7047
:10DE50001300180030BD044BFBE7044BF9E7C04644
:10DE6000182B0020402B00200E80000008800000AE
:10DE70004DDF704730B500230D0014008DB06946AA
:10DE8000C21AD27B5A540133102BF8D100210D2233
:10DE900004A806F045FE6A462B786846D3776B786F
:10DEA0009377AB785377FFF7E3FF2F236B441B780F
:10DEB00023702E236B441B7863702D236B441B78D7
:10DEC000A3700DB030BD30B50378040085B00D00EF
:10DED0000020022B16D1611C032201A806F004FECB
:10DEE000211D032203A806F0FFFD02AA03A92800B2
:10DEF000FFF7C0FF032202A901A806F0E6FD434296
:10DF00005841C0B205B030BD064B10B558698023EA
:10DF10005B05421C04D0196989B207F071FD10BD80
:10DF20005869FCE70010001029DF704728DF7047B0
:10DF3000034B10B51B78034A9B009B58984710BDB4
:10DF4000052C0020F06202000B0037B50C24020003
:10DF500018009D6809786C43044D08302D680095C1
:10DF6000034D1B696459A04737BDC046AC2B002048
:10DF7000B02B002080225205116914220E4B10B5DF
:10DF8000187889B242439B181A69501EDA881B8997
:10DF90008018C01807F034FD084B1A68012382422C
:10DFA00007D30023824204D1054B1B6858424341EA
:10DFB000DBB2180010BDC046BC2B0020E82B0020AF
:10DFC000082C0020082310B5034A116899431160FA
:10DFD000FFF7AEFF10BDC046EC2B0020094910B57D
:10DFE0000A6813070AD4930702D5012313430B6071
:10DFF0000222054B1A70FFF79BFF10BDFFF7E2FFEF
:10E00000FBE7C046EC2B0020052C0020064B10B58A
:10E010001B681B0705D40122044B1A70FFF788FF09
:10E0200010BDFFF7CFFFFBE7EC2B0020052C0020F5
:10E0300010B5002806D0112805D10823094A116817
:10E040000B43136010BD1423074A11785943043160
:10E050005118FFF779FF0422044B1A7000F096F86C
:10E06000F0E7C046EC2B0020BC2B0020042C002045
:10E0700010B5FFF759FFFFF7DBFF10BD70B5142493
:10E080008025114B6D051A78104E54431C192B69CD
:10E0900021692089E2889BB2401861699A420DD9B2
:10E0A0002C69A4B2141B2A69091992B2920820188B
:10E0B000FFF7DEFF2B699BB2336070BD9208FFF75C
:10E0C000D7FFE388F8E7C046BC2B0020FC2B0020DC
:10E0D00070B58025094B6D052A691B6894B2013B18
:10E0E0005C43FFF711FF2B69411E9BB25943044B60
:10E0F00020001A68FFF7BCFF70BDC046E82B002067
:10E10000F02B0020142270B580260E4B760519786E
:10E110004A439B181A89DC881B69A4183169E418E2
:10E12000200089B207F0F2FC0D00FFF7EDFE336925
:10E13000411E9BB25943044B49191A682000FFF74E
:10E1400097FF70BDBC2B0020082C002010B5FFF7F6
:10E15000DBFE8022074952051369146909681269B8
:10E16000A4B2614392B2441E98B292086043FFF792
:10E170007FFF10BDE82B002010B5034B1868FFF798
:10E18000D5FEFFF755FF10BDE82B0020F0B52B4B57
:10E1900085B0187803280ED807F028FC020F124D1E
:10E1A0000023274A1360274A1360274B5B78002B14
:10E1B00001D000F0F5F805B0F0BDFFF75FFFFAE71A
:10E1C000224C14252368802701930123019A7F059F
:10E1D0009A431D4B226002921A78396955435D19A2
:10E1E0002B6989B21800039307F00AFC184B06004C
:10E1F0001860039B3969581EEB8889B2C01807F074
:10E20000FFFB864210D10223029A13432360114B75
:10E210001A68114B002A0CD121680232114208D130
:10E220001A70FFF785FEC6E70323019A9A4313008D
:10E23000ECE70022F4E7FFF79FFFBCE7042C002087
:10E24000002C0020FC2B0020BC2B0020EC2B0020FD
:10E25000E82B0020F02B0020052C002014230C209C
:10E26000F0B58025484A85B011786D054B43D31829
:10E27000DF68464A7843121814895089526860430F
:10E28000821829691C890292DA881E6913199B1960
:10E290000193002303923E4A89B21360300007F0D5
:10E2A00035FC2A00002918D12B6903999BB29942A9
:10E2B00005D0029B01998B424ED1002C58D1116997
:10E2C000300089B207F09CFB324B18600323324ABE
:10E2D0001370FFF75BFF05B0F0BD022FEFD0296987
:10E2E000A01989B207F012FC2C4B89081960019A19
:10E2F000029B2969934220D089B2019807F006FC5D
:10E3000000291AD080246B4664052169188989B2D6
:10E310009F8807F075FB26690500B1B2380007F049
:10E320006FFBADB280B2854209D16B466A461B894C
:10E3300092889B1A164A9B0813600223C7E7236939
:10E340002169380089B29CB207F0E0FB89B2641AF7
:10E350000F4BA4081C60F0E7022FB0D02969A01968
:10E3600089B207F0D3FB0D4B890819602969C3E70F
:10E37000022FA4D02969A01989B207F0C7FB074B67
:10E38000890819602B69D8E7BC2B0020B02B00202E
:10E39000082C0020E82B0020042C0020F02B00206B
:10E3A00014220D4B10B519784A439B18D9880B4A93
:10E3B0001B791160DAB2012A05D0002A02D0033B92
:10E3C000012B05D910BD064B1A70FFF7DFFEF9E7E8
:10E3D000FFF744FFF6E7C046BC2B0020AC2B002023
:10E3E000042C0020F7B5124E0193757808AC2788ED
:10E3F0000424022D19D034786419012C00DD023C6C
:10E4000014235C4334196261220020710C3209C963
:10E4100009C2019B2781E3800024064B01351B784C
:10E420007570A34201D1FFF7BBFF2000FEBDC046BF
:10E43000BC2B0020042C002070B51424114D0020AA
:10E440002978614304316918FFF77EFD230000221B
:10E45000012029784B43EB181A71DA80D8601A61D1
:10E460005A611A816B780918013BC9B26B70022995
:10E4700005D02970044B1A70FFF788FE70BD2A7012
:10E48000F8E7C046BC2B0020042C00201422084BC7
:10E4900010B519784A439B181B79042B02D0FFF75B
:10E4A000CBFF10BD0122034B1A70FFF76FFEF8E798
:10E4B000BC2B0020042C0020F8B508241E4E376821
:10E4C0003C4035D180235B0519691C4B1D68002D2C
:10E4D0001BD014221A4B89B2187842439B181A6930
:10E4E000501EDA881B898018C01807F089FA154B6E
:10E4F0001B68984209D1144B1C6001231F43134B26
:10E5000037601C70FFF714FDF8BDFFF733FD0028DE
:10E5100006D000220C4B1A600C4B02321A70F1E745
:10E52000002D02D0094B0322F8E7FFF7AFFFEBE71E
:10E53000FFF748FDE8E7C046EC2B0020082C002040
:10E54000BC2B0020E82B0020F02B0020052C002005
:10E55000054B10B51B681B0702D4FFF797FF10BDD2
:10E56000FFF730FDFBE7C046EC2B002070B5174DE0
:10E570002C68230727D4164A136801331360154B00
:10E580001B68002B05D00422134B1A70FFF7D0FC38
:10E5900070BDFFF7EFFC002802D00F4B0222F4E71A
:10E5A0000E4B1B68002B0BD0012321000A4A194097
:10E5B00003D123432B601170E8E703231370E5E7D1
:10E5C000FFF764FFE4E7FFF7FDFCE1E7EC2B002039
:10E5D000E82B0020F02B0020052C0020082C002028
:10E5E0001E4B10B51B78022B30D0032B19D0012BFA
:10E5F00013D108211A4A13680B4222D11423194A55
:10E6000011784B43D218184B1968D3885B1A9BB208
:10E61000D380002B02D1FFF70FFF10BDFFF72EFDB7
:10E62000FBE708210E4A13680B420AD10F4A136810
:10E6300001331360FFF79EFC002804D1FFF726FF8B
:10E64000EBE78B431360FFF7A1FDE6E7084B094AB0
:10E650001B789B009B589847DFE7C046042C00209E
:10E66000EC2B0020BC2B0020FC2B0020E82B0020F2
:10E67000052C00200463020010B5FFF745FC802242
:10E68000520513691169421E98B2504389B207F0CE
:10E69000B7F9FFF74BFCFFF7CBFC10BD70B5154C7D
:10E6A000042522781300AB4303D002281FD003288F
:10E6B00000D070BD104B1B681B0718D40F490B68A6
:10E6C00001330B60032B07D0022A02D0FFF75EFD57
:10E6D000EFE7FFF72DFCECE71423094A0D20117832
:10E6E000594304315118FFF72FFC2570EEE7FFF76F
:10E6F00077FFDEE7042C0020EC2B0020002C00200C
:10E70000BC2B002010B501220024154B1C801C716D
:10E71000DC80DA601C615C611C811C765C831A629F
:10E720005C629C629C830F4B1C80FFF7EDFB802397
:10E730005B051B69821E98B2504304220A4B186085
:10E740000A4B20001C600A4B1C609C60094B1C702B
:10E75000094B1C60094B1C60094B1A6010BDC04678
:10E76000BC2B0020F42B0020F82B0020E82B0020ED
:10E77000B02B0020042C0020002C0020FC2B0020BB
:10E78000EC2B0020294BF7B51B6804000E00082075
:10E790005B070FD50630002C0CD000290AD0236867
:10E7A000002B07D080277F053A69A38892B2934255
:10E7B00001D90720FEBD0F2BFBD9E288002AF8D033
:10E7C00053431B490D685B190193FFF79DFB3B69A0
:10E7D000421E98B25043019B8342EAD8A288930715
:10E7E000E7D1144B04201F88012FE3D00C237B4377
:10E7F0003760756010482668C1181E5080234D6030
:10E800000A81E0885B05488150431969013889B263
:10E810001C6907F07FF9A4B201304443044B651929
:10E820001D60044B01371F800020C3E7EC2B002044
:10E83000F82B0020F42B0020B02B0020104B30B51B
:10E840001C680823640717D50633002814D0002A53
:10E8500012D00368002B11D10A4D2C68002C0DD06A
:10E860002C89406861430918688944436868241802
:10E87000A14203D213605160180030BD0723FBE7AB
:10E88000EC2B0020B02B0020F7B505001A480468D7
:10E89000082064072FD5063000292CD0002D2AD05F
:10E8A0002C680738002C26D1144884466446246816
:10E8B0000720002C1FD060460689448940687443B5
:10E8C0006F6824180720A74215D2002A13D0964259
:10E8D00011D3D418A6420EDB0324093021420AD1F9
:10E8E000234208D1274206D100930F3813000A00B3
:10E8F0002900FFF777FDFEBDEC2B0020B02B002098
:10E90000F7B505001A480468082064072FD50630BB
:10E9100000292CD0002D2AD02C680738002C26D1B5
:10E9200014488446644624680720002C1FD06046A3
:10E9300006894489406874436F6824180720A742F9
:10E9400015D2002A13D0964211D3D418A6420EDB5A
:10E950000324093021420AD1234208D1274206D19B
:10E9600000930C3813000A002900FFF73BFDFEBDA1
:10E97000EC2B0020B02B0020F0B51700224A85B008
:10E98000126802900D009C460824530734D50634C3
:10E99000002931D000282FD00C68002C2FD11B4E1D
:10E9A0003268002A2BD030897289736842434968E3
:10E9B000D218914223D2002F21D0B8421FD36346F0
:10E9C000FA1890421BDB0322029B134219D16346C3
:10E9D000134216D10A40039213D161443A000298BF
:10E9E00006F082F80C232A68009753430221F65858
:10E9F000039A029B2800B047200005B0F0BD072411
:10EA0000FAE71024F8E7C046EC2B0020B02B0020DA
:10EA1000F0B51E4B05001B6885B00E0008205B0793
:10EA200032D50630002D2FD02B680738002B2BD184
:10EA3000174A1368002B27D01789536852896C68CE
:10EA40007A43D218039294421ED20930A2071BD1F6
:10EA5000E01A390007F05AF80720002914D13900CC
:10EA6000300007F053F889B2072000290CD1002E9E
:10EA70000AD0039B3419A34206D30022330000922C
:10EA800029000438FFF7AEFC05B0F0BDEC2B0020E8
:10EA9000B02B00202EDF704751DF704710DF70472A
:10EAA00011DF704761DF704710B50800110000F0FA
:10EAB0000FFA10BDF0B5254B85B01B78DBB2009383
:10EAC000002B18D0224E234F33685A425A41D2B2FB
:10EAD00001923A68002A14D1009C002B0BD021E04F
:10EAE00003983B6898472C0019E028003368984742
:10EAF00029E0002C05D005B0F0BD002CFBD1009C16
:10EB0000019403A8FFF7C8FF009C0500052806D064
:10EB10000028E5D00022110000F0DCF90024019B60
:10EB2000002BE6D10C4B03A91B880B800B4B1D68F7
:10EB30002800FFF7B7FF0528DFD00028D5D0002236
:10EB4000110000F0C7F9002CECD1D9E7182C0020F7
:10EB5000102C00201C2C00200C2C0020202C00202D
:10EB600070B504000720002913D08D0711D1094882
:10EB70000160094920000A80084A09491360FFF72B
:10EB80008DFF002805D10122064B16301A70FFF7C1
:10EB900081FF70BD202C00200C2C0020142C0020A4
:10EBA000A9EA0100182C002010B5FFF779FF030037
:10EBB0005A1E9341014ADBB2137010BD182C00207D
:10EBC0000E23002802D0024B186000231800704763
:10EBD000102C00200E23002802D0024B18600023C6
:10EBE000180070471C2C0020074B10B51B68002B29
:10EBF00007D09847002803D00022110000F06AF9DE
:10EC000010BDFFF757FFFBE7142C002070DF7047A3
:10EC100071DF704760DF704710B5FFF73FFD10BD33
:10EC2000074B10B51C78002C07D1012220001A7068
:10EC300003F0CCF82100FDF754FB002010BDC046C6
:10EC40006C2C0020F0B505008BB0FEF71FFF2800EC
:10EC500000F014FA002003F0B9F8036806009B697D
:10EC60009847336804001B6A300098473368029065
:10EC7000DB6A300098470300288810380B2800D939
:10EC80008AE006F0B3FE064B898989838989898FDA
:10EC900089ACAE88200031002F7D01F065FA20009C
:10ECA00001226B7B583001930378A97993439C46EA
:10ECB00002236246134303700238037804AA013327
:10ECC000037004ABD9701E809F70002305931381DD
:10ECD000D372137353739373D37313742B0001990B
:10ECE0001633917205A8E91D0622099305F0FCFE72
:10ECF00029000B2004AB06220E31C01805F0F4FEEB
:10ED000094346368A360A068002845D0C36804A950
:10ED10009847A368002BF4D01B69F3E74149200012
:10ED2000AF8801F021FAAB793000019333689B6A18
:10ED300098470600ED30FF300622390000F0CCFE87
:10ED4000338FBB4204D13000736B34309B689847DB
:10ED5000220056321378013BDBB21370002B03D133
:10ED6000022193788B439370019A04AB1F809A70B1
:10ED7000A0346368A360A06800280DD0C36804A90C
:10ED80009847A368002BF4D01B69F3E75B69A88858
:10ED9000A91D002B00D098472900029802F04EF8D8
:10EDA0000BB0F0BDAE79002E05D122000121583202
:10EDB00013788B431370636E002BEDD01A4A002A30
:10EDC000EAD0A366A06E0028E6D0C3683100984759
:10EDD000A36E002B01D1636EF3E71B69F1E70126F7
:10EDE00069460D27AB7BEF575A071E40920FDB0891
:10EDF0000A710B730622E91D04A805F075FE6A4628
:10EE0000127904AB1A726A46127B9F71DE715A72D4
:10EE10002B0020000F3307938C348030236804A923
:10EE20009847B9E7FFFF000081C101001FB58022AC
:10EE3000A323D205DB00D3580820DB0700D405301C
:10EE40001D4B48221D49FFF78BFE00280BD080B2D6
:10EE5000002808D1BFF34F8F194B1A4ADA60BFF36D
:10EE60004F8FC046FDE702AC08220021200005F0CC
:10EE700057FE012320002370FFF7CCFE002802D0AC
:10EE8000072004B010BD6846FFF7C2FE0028F7D186
:10EE90006946FFF7BBFE0028F2D10B48FFF790FE52
:10EEA00080B20028EDD10948FFF794FE80B2002817
:10EEB000E7D100F0A1F9E4E721EC0100242C0020C7
:10EEC00000ED00E00400FA0545EC010019EC01003A
:10EED0007047000080B2002808D1BFF34F8F044B69
:10EEE000044ADA60BFF34F8FC046FDE77047C04663
:10EEF00000ED00E00400FA0510B5002204000270E5
:10EF0000431C11341A700133A342FBD1418210BD5E
:10EF100010B50278002A0BD10C781300002C05D113
:10EF2000438A488A1B1A58424341DBB2180010BD7D
:10EF30000023012AFAD10A78012AF7D101310130E0
:10EF40000F3205F0C2FD43424341EEE703000200E9
:10EF5000F0B55F3391B001931B785C3204000F0071
:10EF60000092022B64D1002602ABDE86310008A895
:10EF70000796FFF7C1FFCA2307AD2E766E83AE83D7
:10EF8000EE832E845B00E358079A934231D0002F22
:10EF90001AD1009B26001A7818235343E3187633BE
:10EFA0001A88D9235B003900E252303602A8FFF7F5
:10EFB000A3FF02A93000FFF7ABFF00283FD02000DD
:10EFC000636C4430002B4DD1002602ABDE8631004D
:10EFD00008A80796FFF790FF20009530222229000D
:10EFE000FF302E766E83AE83EE832E8405F07CFD9B
:10EFF0001BE02000993008A9FF30FFF789FF0028A7
:10F00000C5D023009533FF33197E2A7E4A4052062D
:10F01000BDD1598B6A8B9142B9D1DA69E9698A42CB
:10F02000B5D11A8C2B8C9A42B1D10123019A13705D
:10F03000009B009A1B780133137011B0F0BD2100C2
:10F040009931FF313000FFF763FF0028BCD0390051
:10F050002800FFF751FFA01D2900FFF759FF0028E6
:10F06000B2D1ACE7044B002BAED021009531FF317B
:10F07000236D9847A8E7C04681C101007FB5040011
:10F08000002002F0A3FE050003689B6998472B68E7
:10F0900028009B6A984706000500208834363038DF
:10F0A00008280ED806F0A2FC050D198727330D4B52
:10F0B0006500E388002B0BD1210030000C3102F0F9
:10F0C00031F8300002F02CFA300002F0AFF97FBDC9
:10F0D0006B6B30009B689847F3E7E388002B05D102
:10F0E000210030000C3102F0A5F8EAE700213000E1
:10F0F000FFF72CFFE5E76B6B30005B689847002853
:10F10000DFD0210030000C3102F0FAF8D9E76A466E
:10F11000A3881380A3895380E3899380238A1234C0
:10F12000D3800294AB68EB60E8680028C9D0C3685C
:10F1300069469847EB68002BF4D01B69F3E76A46F1
:10F14000A3881380A3895380A37B1371238AD38060
:10F15000638A1434138103946B69AB61A869002836
:10F16000AFD0C36869469847AB69002BF4D01B69E0
:10F17000F3E76A46A3881380A3895380A37B1371A6
:10F18000238A1234D3802B6A0294002B00D198E793
:10F19000144A002A00D194E76B62686A002800D103
:10F1A0008FE7C368694698476B6A002B01D12B6AC9
:10F1B000F2E71B69F0E72800E388ED30FF30A18813
:10F1C000002B05D085225200934206D00B2205E089
:10F1D00022000C3200F093FC73E7002200F07CFC6C
:10F1E0006FE7C04681C1010077DF704778DF704765
:10F1F0007ADF70477CDF70477FB5002302ACA380C5
:10F20000134B144E0293C8235B00E380803BFF3B0B
:10F2100001AD30002B7006F09DF8310082B228005D
:10F22000FFF7E8FF80B200280FD180208000FFF7B1
:10F23000DDFF80B2002808D12000FFF7D9FF80B29F
:10F24000002802D1FFF7D0FF80B204B070BDC046E5
:10F2500028009001186302007EDF704768DF704766
:10F2600070B500200D0002F0B1FD0368DB6A98471D
:10F270002B780400142B1ED003D8132B0CD00020A5
:10F2800070BD152B1FD0222BF9D16B68188823690C
:10F29000002BF4D09847F2E76B68012518889B781B
:10F2A000646819005A08DB0629402A405B0F002CCD
:10F2B000E5D0A047E3E76B6818889978A368002B2E
:10F2C000DDD09847DBE76868827813091207120FD0
:10F2D000012A03D0022A0BD0002106E0013BDBB259
:10F2E0000021022B01D8064AD15C0088E368E6E7DA
:10F2F0000421012BF9D00131022BF6D0ECE7C046F6
:10F300001E630200014B18787047C0466D2C002028
:10F31000F0B51D000023304F87B000923A78060008
:10F320000C009A4204D1FFF7EDF9002803D00B231B
:10F33000180007B0F0BD002D0ED003A922200395C0
:10F34000FFF78CFF002807D006230828F0D01138DB
:10F35000434243410433EBE7002302AA1000137039
:10F36000FEF7E4F90028E2D101251C4902220B78BE
:10F370002E40AB433343072693430193009B2C401D
:10F3800033409340AC409C46019B02AA1C431C2383
:10F390009C4363461C430E239B181880104B0C7033
:10F3A0000393022303AC2371093002AB0522C0187A
:10F3B00005F09AFB21000B48FEF730FA002807D031
:10F3C00033000428B4D0013B0828B1D00533AFE79F
:10F3D0003D700300ACE7C0466D2C002008280020DB
:10F3E00061F201006E2C002010B50748FEF700FB0B
:10F3F0000023984206D00733042803D0013B082895
:10F4000000D00533180010BD6E2C0020002373B50A
:10F4100001930F4B01AD1B780E0029002B70FEF7F6
:10F4200003FD041E05D00423052800D0073318006F
:10F4300076BD31002800FEF72BFA23000028F6D015
:10F4400007230428F3D0013B0828F0D00533EEE76A
:10F450006E2C002073B5114C0E0005000522210012
:10F46000684605F041FB012E03D0022E10D0022386
:10F470000CE002222378B3439343694628002370AB
:10F48000FFF7EAFE0023984200D00B33180076BD48
:10F49000012322781343B343EFE7C0460828002036
:10F4A000094B10B51A7801000923002A09D0074832
:10F4B000FEF726FA0023984203D003330E2800D02B
:10F4C0000333180010BDC0466D2C00206E2C0020A8
:10F4D00010B5FEF7F8FC10BD022310B50B708C338D
:10F4E0000B713F3B4B712D338B714A1C0431FEF77E
:10F4F000C1FC10BDA2DF7047A3DF704763DF704718
:10F5000010B586B06B46DC1D002302AA2370C15CD7
:10F5100099540133102BFAD121001000FFF7EEFFB0
:10F520000023984200D12378180006B010BD0000D7
:10F530000122F0B5438A87B0039303780400019257
:10F54000002B3AD0234E83180093234A33680027B8
:10F550009C461100BC4511D00023981E012804D9F7
:10F560000098D55CC05C854231D10133102BF4D1B9
:10F570001120784309180B7C01931EE00098FFF7D7
:10F58000BFFF237802900190002B01D11234009428
:10F59000042F12D01125380068430F4C1022201878
:10F5A000009905F0A1FA002233685D436419A27046
:10F5B000E270029A013322743360019A05AB9A70AB
:10F5C0005888039B00040343180007B0F0BD0137BF
:10F5D0001132BFE7702C0020742C0020F0B59BB0D6
:10F5E0001F0020AB029102CB0BAC1B88039104934C
:10F5F00022AB1B880190059323AB1B782000069358
:10F6000025AB1E8826AB1B78079327AB1B78089386
:10F6100008ABD91D0A70012205F066FA3023227862
:10F620001A420ED00CAC03220021200005F078FA1B
:10F630000622A37893431A0002231343A3703A4B84
:10F64000238013AC1C220021200005F069FA0BABCB
:10F650001D7830232B40591E8B410CAA5B421A4067
:10F6600025706261002E05D0249B002B02D06360C0
:10F67000268166810DAC03220021200005F050FA9E
:10F680000121079B089A0B400A401201DB0013433B
:10F69000069A0A401100022213430B43A37032233F
:10F6A0001D4209D0781E042806D806F09FF90310E1
:10F6B00012141600112323700C231D4211D0781E42
:10F6C00004280ED806F092F90B27292B2D002123B0
:10F6D000F1E73123EFE71223EDE72223EBE71123D4
:10F6E0006370222008AB06220021C01805F018FA2A
:10F6F000029B0EAD0E93049B2A002B81059B13A940
:10F70000AB81039B01982B61289B6C60FFF7F2FE95
:10F7100080B21BB0F0BD2123E2E73123E0E71223E2
:10F72000DEE72223DCE7C04611110000F0B589B006
:10F7300000930EAB1B8805000F00160001930322F7
:10F740000FAB002102A81C7805F0EAF901230E2076
:10F750001C40DB181C4302AB9C700D4B02AA1380AB
:10F7600002AB06220021C01805F0DAF903AC02ABA7
:10F770006360009B109A2381019B2100280003975E
:10F78000A3812661FFF7B8FE80B209B0F0BDC04684
:10F790001111000093DF704710B50368002B01D0F2
:10F7A0000800984710BD10B50368002B01D0080071
:10F7B000984710BD70B503680A6805000C009342B5
:10F7C00001D0002070BD0379002B1AD10B79002BDA
:10F7D000F7D1C28ACB8A9A42F3D12A7E237E534044
:10F7E0005B06EED16A8B638B9A42EAD1EB69E269E0
:10F7F0009342E6D1238C288CC01A43425841C0B2B0
:10F80000E0E7012BDDD10B79012BDAD10531053091
:10F81000102205F05AF90028DFD0D2E7F8B504002D
:10F820000D00222205F060F92A002300243224333F
:10F8300043CA43C32B6B0021236323006163383326
:10F840000832C1CAC1C36B6C20006364A164F8BDF7
:10F8500070B506000D000400E43629002000FFF713
:10F86000A9FF002802D14C34B442F6D170BD70B566
:10F870000D0004000B68102203600B790371CB8A22
:10F880000531C382053005F02FF92B7E2000237649
:10F890006B8B6383AB8BA383EB8BE3832B8C2384F6
:10F8A00070BD000007B501AB198019005A80FFF741
:10F8B00071FF032310280CD004D80023984208D0ED
:10F8C0000B2306E00523112803D0034A013B904295
:10F8D000F6D118000EBDC0460230000070B502001F
:10F8E0000025040005600571431D15321D700133AC
:10F8F0009A42FBD12000E58225766583A583E583C6
:10F9000025840C220021243005F00AF92000064B42
:10F91000656323630C220021383005F001F9034BA5
:10F92000A5642000636470BD99F70100A7F701008A
:10F9300010B50400FFF7D2FF20004C30FFF7CEFFD8
:10F9400020009830FFF7CAFF200010BDF8B5040072
:10F9500016001D00FFF78BFF23003200243383CAFB
:10F9600083C3F368002223632300290062633833D2
:10F97000C1C9C1C3EB6820006364A264F8BD70B55F
:10F980008AB004000190038C0E000168132003ADBF
:10F99000AB8013780391AB71538A511C68441022D9
:10F9A0002B8305F0A1F820006E8302952430236B91
:10F9B00001A998470AB070BD07B503006A460090D8
:10F9C000117138305B6C6946984707BDF0B50C0083
:10F9D000A7B068461500FFF74AFF220009AB2432A2
:10F9E00043CA43C30021236B0D910C9308320EAB25
:10F9F000C1CAC1C3636C13A811931291FFF76EFFC4
:10FA000013A92000FFF70AFF29006846FFF7D4FF7B
:10FA100027B0F0BD10B5040096B003A8FFF75EFF55
:10FA200003A92000FFF7C6FE002802D1002016B06F
:10FA300010BD0F9B226B01939342F7D121000C2242
:10FA400024310CA805F041F80028EFD1149B626C1A
:10FA50009342EBD121000C22383111A805F035F882
:10FA600043425841C0B2E2E7F8B506000F00040077
:10FA7000E436390020002500FFF79CFE002804D161
:10FA80004C34B442F5D1002504E02000FFF7C2FF5A
:10FA90000028F5D12800F8BD10B50400FFF7E4FFF9
:10FAA000011E03D000222000FFF790FF10BDF8B523
:10FAB00006000F000400E436238C2500BB4204D06E
:10FAC0004C34B442F8D1002504E02000FFF7A2FF37
:10FAD0000028F5D12800F8BD70B504001500FFF727
:10FAE000E6FF011E03D02A002000FFF76FFF70BD64
:10FAF00010B5FFF7DCFF431E9841C0B210BDF0B552
:10FB00008BB00700019116000024FFF7D0FF05001D
:10FB1000A04231D03388A34219D906236343F31896
:10FB20005A889B880292039300239C4605AA13706F
:10FB30006146D01801334170102BF9D1039B029913
:10FB4000280001345382A4B2FFF719FFE2E706222E
:10FB5000013B5343F6187188EA8B013189B2914217
:10FB600005D9002229003800FFF730FF04E0019892
:10FB7000FFF798FE021EF5D10BB0F0BD70B5050081
:10FB80000400E4352000FFF745FF002803D14C3482
:10FB9000AC42F7D10400200070BDF0B54C8B1E00C4
:10FBA0000234CB8B99B0A4B207000D0003920193ED
:10FBB0009C4209D9002405910694F36805A93000F8
:10FBC0009847200019B0F0BD0B8C19000293FFF785
:10FBD0008FFF002801D00524F3E73800FFF7CEFFA0
:10FBE000071EF8D02100019A0298FFF75BFE041E61
:10FBF000E7D129003300039A05A8FFF7A7FE05A95E
:10FC00003800FFF70BFEDCE70160012170B51C1C1A
:10FC100004AB1D8805AB1B880284027E4583E50783
:10FC20008383ED0F8A4363080B402A4302258B40F0
:10FC3000AA431A430423A5080D40AD009A43E608E1
:10FC40000E402A43DB18F6009A43250932430D4043
:10FC500008332D019A432A43202563090B40AA4308
:10FC60005B0113434022A4092140890193430B43C4
:10FC7000037670BD016000218C46F0B589B00FADF0
:10FC80001E002B8810AD0EAC00932B8802842478C4
:10FC900003AA019311706346571801317B70102934
:10FCA000F9D1031D5682E0CAE0C360CA60C30122D5
:10FCB000009BE5074383019BED0F8383037E66086A
:10FCC000934316402B4302259640AB43334304260F
:10FCD000A5081540AD00B3432B430825E6081640A0
:10FCE000F600AB432509154033432D018B432B43CD
:10FCF0002025610911404901AB430B434021A40970
:10FD0000224092018B431343037609B0F0BD70DFAC
:10FD1000704771DF704772DF704773DF704774DFC1
:10FD2000704775DF704776DF704777DF704778DFA1
:10FD3000704779DF70477ADF70477BDF70477CDF81
:10FD400070477DDF704786DF704787DF704788DF49
:10FD500070471420704764207047A02080017047CE
:10FD600010B5FFF7F2FF0023984200D005331800CA
:10FD700010BD10B50400FFF7D2FF0323002805D102
:10FD800001210300583422788A432270180010BDE4
:10FD900008003B2110B58A4200D02839FFF7C3FF85
:10FDA0000323002800D10300180010BD030010B584
:10FDB000FE330A00598F03681B6A984710BD10B5BF
:10FDC0000800FFF7BAFF0323002800D10300180042
:10FDD00010BD10B50800FFF7AEFF0323002800D1C7
:10FDE0000300180010BD080010B51100FFF799FFBF
:10FDF0000023984200D00333180010BD080010B54E
:10FE00001100FFF79EFF0023984200D00333180033
:10FE100010BD10B50800FFF78AFF0023984200D0FC
:10FE20000333180010BD10B50800FFF782FF002350
:10FE3000984200D00333180010BD10B50800FFF73A
:10FE400074FF0023984203D00533112800D0023BF1
:10FE5000180010BD024B0B60092313607047C046A9
:10FE6000BC63020008207047B83001700020704762
:10FE7000B93001700020704702207047B830007818
:10FE80007047B930007870470020704710B503689C
:10FE9000002B01D00800984710BD10B50368002B57
:10FEA00001D00800984710BD0200030010B5F332DE
:10FEB00011786C309B6F984710BD10B5002801D0A9
:10FEC0001CC91CC010BD7047030010B5426899687A
:10FED000501008181B68D20701D50268D3589847FC
:10FEE00010BD13B50C001100012C0DD86B46062275
:10FEF000581C04F0F9FD00206B4669461C70FFF7A2
:10FF000006FF002805D003E00120A31E8342F3D999
:10FF1000032016BD73B568460E001500FFF7F9FE05
:10FF2000032400280DD1002E02D06B461B783370BD
:10FF30000024A54205D06B460622591C280004F077
:10FF4000D3FD200076BDF8B506000D00002407277C
:10FF50003300BA331B78A3420FD96B79A3420CD973
:10FF60003800604301002B68BB3171181818072254
:10FF7000013404F0B9FDE4B2EAE72C710020F8BDC9
:10FF8000112337B5080001AC23700D0005F0E2F92C
:10FF9000290082B22000FFF7D2FE0023984200D051
:10FFA000033318003EBD0000012110B5044A0800CB
:10FFB000FDF73EF90023984200D00B33180010BD26
:10FFC0004D040200F8B503680700DB6C0D000C79E6
:10FFD0009847032384420DD8002307212879DAB2F9
:10FFE000904209D90A005A432C680133125D032A52
:10FFF000F5D104231800F8BD3E000024BA36347051
:020000022000DC
:100000002B79A34211D9072161432B683078591805
:1000100007235843BB301A00381804F065FD3378C5
:10002000013401333370E4B2EAE70023E2E710B5AC
:100030000C00C97F01201F2902D8002901D103200B
:1000400010BDD37F2000FFF766FE0028F7D1208C7B
:10005000FFF76DFE0028F3D0F1E70000F8B50500CA
:100060000400AC356B68AB60A868002807D0C36893
:1000700021009847AB68002BF4D01B69F3E72600FA
:10008000B0363568002D05D02F69280002F040FCFD
:100090003D00F7E72200FC21356058321378260036
:1000A0000B40137023000A3656331D709D711F22BA
:1000B0002900300004F034FDF5772A361F2229008C
:1000C000300004F02DFDF577606E002804D005693E
:1000D00002F01EFC2800F8E72500983560662868C5
:1000E000002804D0066902F013FC3000F8E726006F
:1000F000A43628603568002D05D02F69280002F04D
:1001000007FC3D00F7E72000356029000C226C3029
:1001100004F006FD2000084BE567A36729000C22C8
:10012000803004F0FDFC2300044A8C339034280016
:100130001A602560F8BDC0469BFE01008DFE0100DF
:1001400010B50400FFF78AFF03000620002B0AD138
:10015000220001211800FE3249425187BA34463A42
:1001600013705370237010BDFE3041877047FE300E
:10017000408F7047F0B593B0019000200C0001F063
:1001800025FE0368DB6A9847FFF7BCF806AB00283A
:100190000ED000221A7105AA0692082218001A73BE
:1001A0000AAA9A60FFF77CF9002803D013B0F0BDCB
:1001B00018711873002727732771019BBA331B78B6
:1001C000BB4242D907237B431A000199BB32CB18AB
:1001D000BB331B788A180292022B2ED1002506AE63
:1001E000337BAB4223D9AB000393089BAA009958F9
:1001F0000298FFF76DF900281CD0B3689C46AB004D
:100200001900237B614402939A000868A368D050C8
:10021000029B01332373337B5A1E954205D00C4851
:100220001B1860469B001B580B6006AB1A73013706
:10023000FFB2C2E70135EDB2D1E723792168029818
:100240009A00013350502371F1E70020AEE7C04619
:10025000FFFFFF3F70B50C0009789AB00222012918
:1002600008D06388032908D1A03B1F4D9BB20A0028
:10027000AB4208D910001AB070BD203B1B499BB29D
:1002800003228B42F6D81A4BA18803229942F1D857
:100290000AAB009312AB02936A4600230500137168
:1002A0001373B8352B78002B17D104AE1822002118
:1002B000300004F035FC2378300033702B78337233
:1002C0006B46F36063883382A3887382FFF725FD52
:1002D00000229042CED00332CCE76946FFF74AFFB6
:1002E000021EE2D0C6E7C046603F0000E03F0000CB
:1002F000FF3F000070B598B008AB009310AB0293BD
:100300006A460023050013711373B9352B780C006E
:10031000002B1ED1012604A80378A1792A78314048
:10032000B3430B4332400221B2408B43134303706B
:100330006B4643602388038163884381A38883815C
:10034000FFF701FD03000320002B00D1180018B0B7
:1003500070BD6946FFF70EFF0028DBD0F7E700000D
:10036000F0B59DB01E006B4604001A70581C0622A2
:10037000229D04F0B9FB002E2ED0328802AB1A80E9
:1003800072885A80B2889A80F288DA800CAB04AE08
:10039000049314ABB36027000023B9373371337370
:1003A0003B78002B1ED101223B78022708A913407D
:1003B00058000B784E60BB430343002D1AD1200038
:1003C000323000789343104003430B70A38D0B81B0
:1003D000E38D4B81238E17E01A4B029396239B04E7
:1003E0000393D3E731002000FFF7C4FE0028DAD0E2
:1003F0001DB0F0BDA8799343104003430B702B88C8
:100400000B816B884B81AB8802AA68468B81FFF712
:100410009EFC030000208342EAD00630082BE7D080
:1004200006D80130042BE3D0834209D10420DFE752
:100430000520112BDCD0044A9342F7D0102BF5D0C5
:100440000B20D5E732006400023200007FB50500C2
:10045000002001F0BBFC03689B6998470300F3335D
:100460001D706D460400060010220021280004F0D3
:1004700057FB1A4B0294009300230193184BF83654
:10048000EB6003F0EFFB2300FC331B6B002B07D169
:1004900023003133FF331B78002B01D003F018F910
:1004A0002134FF34AC420DD02000FCF73BFD002C82
:1004B00008D0EB68002B03D05B6829002000984728
:1004C000EB68E36030000022002303F062F903F0E0
:1004D000DFFB2800FCF726FD7FBDC046A9FE01001A
:1004E000246302000220704700207047704790DFAD
:1004F000704795DF704797DF704793300078431E51
:100500009841C0B27047080010B511001A00FFF7FB
:10051000F0FF0023984203D01138431E9841431D39
:10052000180010BD30B5002485B001AD6B80089B6C
:100530002970EB80099B290010006C70AC8003933C
:10054000FFF7D9FFA04207D00534112804D0044B8F
:10055000C018444244410634200005B030BDC046B6
:10056000FCCFFFFF10B50368002B01D008009847AF
:1005700010BD10B50368002B01D00800984710BDCE
:1005800010B50368002B01D00800984710BD10B5C6
:10059000ED30FF30FFF701FB10BD10B5ED30FF303F
:1005A000FFF756F910BD10B5ED30FF30FFF774FAC4
:1005B00010BDF0B587B001AB1A000C00E0CCE0C272
:1005C0000200B532FF32C96870CB70C20023B5306B
:1005D000FF30C160036107B0F0BD0000F0B597B017
:1005E0000593036807AC1B68049103931100230073
:1005F0000600A1C9A1C30025D36829000C220CA8BC
:100600000A9311AF0B9504F08BFA094B29003800BF
:100610000F931095FEF770FC059B22000093019745
:100620000CAB04993000039CA04717B0F0BDC04646
:1006300073050200F0B50026050087B001AC868086
:1006400031002000FEF758FC2100A81D142204F000
:100650004BFA0C2728003A0031001C3004F060FAF5
:100660000C4B3100AB62EE622000FEF745FC2B0024
:10067000303307CC07C3280006CC06C344303A0009
:10068000310004F04DFA3000034B6E652B6507B066
:10069000F0BDC046650502007305020070B5040098
:1006A000E36A2363206B002807D0C36821009847C2
:1006B000236B002BF4D01B69F3E7E06A002804D019
:1006C000056902F025F92800F8E7E062A068002833
:1006D00004D0056902F01CF92800F8E7A060606901
:1006E000002804D0056902F013F92800F8E76061DA
:1006F000206A002804D0056902F00AF92800F8E70A
:10070000206270BD70B50400FFF7C8FF0625061E05
:1007100029D120003430FFF78DFF3500002822D189
:10072000230090331E809E70DE70C2235B00E65073
:10073000E218863BFF3B53609360D3601361CE2287
:100740005200A6502200B5349D32FF32FF34536070
:100750009360D360136131000C22200004F0E0F9B3
:10076000024B2661E360280070BDC046810502008F
:10077000262370B5002405008AB06B441C8021003C
:1007800002A80194FEF7B8FB280001AE95302222A2
:100790003100FF3034767483B483F483348404F0FE
:1007A000A3F92B6828005B6898472B005F331C7007
:1007B000A0420DD0C02328005B00EB588130FF30F1
:1007C000A34205D0034BA34202D0A988C36898472F
:1007D0000AB070BD81C1010010B53430FFF7C8FF09
:1007E00010BD0000F0B591B0019106A904009C462F
:1007F00010000B00E0C8E0C3D368654604930BAB60
:1008000018000293C8CDC8C02000270034300590DE
:1008100093373D780620002D3BD16046C368039393
:1008200050239C46A444634645C945C3049B029A91
:10083000E36523002566783343CA43C32000039A47
:1008400016991A6004331D6014223A3004F04CF9F2
:10085000200014221799643004F046F90121019B0D
:100860002A0023879034258018003970FFF73FFE57
:1008700004002800002C0CD00598FFF779FF052014
:10088000112C06D0044B9C4202D00130072C00D121
:10089000042011B0F0BDC04602300000A0DF704758
:1008A000A4DF7047A5DF7047A6DF7047A8DF704759
:1008B000A9DF70470020704713B504680093A4684F
:1008C00013000A000149A04716BDC046FFFF000003
:1008D00037B50800002511006A4655806D46069C14
:1008E000019322882A806A46FFF7DCFF0323002851
:1008F00002D12B882380030018003EBD37B506AC1B
:100900002578046801950093246913000A000149C1
:10091000A0473EBDFFFF0000F8B5040000200D0019
:10092000160001F053FA03689B69984723689F6992
:10093000FFF71DFC330001002A002000B847F8BD76
:10094000F0B5D48B02001E000023457985B0C43277
:100950009D4224D908321700083F3F88A74211D191
:100960001833DB00C3180E241A8902236C44238039
:10097000036803AD00949F682B00B847002803D09C
:1009800005B0F0BD0133E3E723880620022BF7D141
:100990002B8800209B07F3D001233370F0E704205D
:1009A000EEE70000F0B587B000260C0069464E80E7
:1009B0006E4615000CA90DAA0988127831800193A2
:1009C000002A24D101004679C43196420ED908315B
:1009D0000F00083F3F88AF4225D130211C329200E2
:1009E000801842680132D27F0A421ED16A4629002D
:1009F0002000FFF755FF0C2854D045D8052851D0CA
:100A0000072851D0002398420AD00B2308E06A46F9
:100A100029002000FFF744FF0323002800D1030032
:100A2000180007B0F0BD0132CFE710210A40514253
:100A30004A41002002AEF3600CABB360204B0132A0
:100A40003580B270B0809C4207D101F0BFF90368D5
:100A50009B699847FFF78BFB040031002000FFF7EC
:100A600023FF002382B29A42DAD0112A26D01DD861
:100A7000082A21D06A4629002000FFF711FF05232C
:100A80000028CDD0023BCBE710280DD003D8082397
:100A90000F28C5D0B9E70B4B984203D0D0239B0158
:100AA0009842B2D10323BBE70423B9E7064B9A422D
:100AB00004D0064B9A42DDD10623B1E70523AFE708
:100AC000FFFF00000230000003300000013400008E
:100AD000F0B5040097B008002E250B91FEF728FD15
:100AE00004ABED1810902A0010A90120FFF7D6FEE4
:100AF000002802D0032017B0F0BD2B880B9A0A9073
:100B000093830B9B0A9A1B7D934200D8BDE06379C7
:100B1000132B01D90720EEE70B9B9B690C930A9BD3
:100B20000C9A9B009D586B69002B07D16B8B002B97
:100B300004D16B1CDB7F022B00D1A1E02800FEF763
:100B4000F7FC002610900D960C962B0028331B788E
:100B5000B34219D96A6AB3009F580023180011A93B
:100B60000B70CA1801335070102BFAD1494B380062
:100B70004B82FEF7CDF9002803D07B690C937B8B69
:100B80000D930136F6B2E0E76179AB1CC900C431C0
:100B900061186A1CDB7FD27F089129002A3109780D
:100BA0000020079129002931097806910D990591B6
:100BB0000C990491297F0391298B0291698B0191F2
:100BC0006969009110A9FEF709FD002800D091E79E
:100BD000637907001A001C3292001833A218DB0058
:100BE0005560E3189B88EB836379013363712B00B5
:100BF00028331B78BB4243D9C2235B00E35C072B3D
:100C000088D86A6ABB009E580023180011A90B708F
:100C1000CA1801335070102BFAD11E4B30004B8292
:100C2000FEF776F90C90002827D13000FEF780FC03
:100C3000C2214900625C738BC3325200A218029237
:100C4000327F10900192328B10A9009272690C9839
:100C5000FEF76CFD002800D04CE7C2214900635C20
:100C60001A0058329200C033A2185B005660E31895
:100C7000DB88F383635C013363540137FFB2B6E76B
:100C80000A980130C3B20A933BE72379002001336D
:100C9000237130E70129000070B50C220D000021FE
:100CA000040003F03DFF00232361024B2560200078
:100CB000E36070BD81050200F0B5040087B0236BCE
:100CC0006363606B002807D0C36821009847636B9B
:100CD000002BF4D01B69F3E7206B002804D00569D2
:100CE00001F016FE2800F8E72063A080E0680028E5
:100CF00004D0056901F00CFE2800F8E7E060A06967
:100D0000002804D0056901F003FE2800F8E7666AB0
:100D1000A061002E05D03569300001F0F9FD2E00EC
:100D2000F7E701AD310066622800FFF7B5FF230049
:100D30002A00383383CA83C3EB6831006364A66436
:100D40002800FFF7A9FF23002A004C3383CA83C37E
:100D5000EB683100A365E6652800FFF79DFF2300DF
:100D60002A00603383CA83C33000EB682667E366DA
:100D700007B0F0BD70B50500FFF79EFF0400062028
:100D8000002C1DD1280050222100743003F0C8FE31
:100D90002800653020222100FF3003F0C1FE28002A
:100DA00008222100C43003F0BBFE28008730FF304A
:100DB0001022210003F0B4FEC22320005B00EC549B
:100DC00070BD70B504000D006368A360A0680028C2
:100DD00007D0C36829009847A368002BF4D01B698B
:100DE000F3E770BD10B5C368984710BD0B0010B590
:100DF0001100042B0BD0052B13D0032B06D1836BD2
:100E0000002B03D00C4B3830002B07D110BDC36C26
:100E1000002BFBD0084B4C30002BF7D0FFF7E2FF44
:100E2000F4E70300026E6033002AEFD0024A002A82
:100E3000ECD01800F2E7C04681C10100F0B50B8884
:100E40008FB005000C00512B00D17BE005D8012BA1
:100E500062D0502B2ED00FB0F0BD522B6BD0532B45
:100E6000F9D1CE8805212B0000206A79C433009087
:100E700000988242EFD90833180008380088B04241
:100E80006CD1062900D1AAE007296AD032000229D4
:100E90003ED1A3880AA90B804E80237A0B71A38BC5
:100EA000CB80E38B20340B81CC6028001430FFF71B
:100EB00088FFD0E702000023CE884179C8329942EA
:100EC0000ED90832100008380088B0420AD11C330D
:100ED0009B00EB185A68531CD87F3023184203D16B
:100EE0000221C0E70133EAE7A31CD97F0134E37F85
:100EF00009020B43810602D503219C0707D4042174
:100F0000C00604D503390B40594259410331D28BF5
:100F10002800FFF76BFF9EE70C7AEB682B612869CE
:100F2000002800D197E7C368210098472B69002B60
:100F3000F3D01B69F2E7002388881A001900FFF735
:100F4000B7FC88E78B79012B05D0022B00D082E714
:100F50000E89072187E70E89062184E70098013072
:100F600085E700230593A38802AA13805680E38BAC
:100F700006AF9380238C0021D380230010222233DC
:100F800038000193049303F0CBFD02233B70009BD8
:100F90001C339B00EB185A6813002A33197800237E
:100FA000994206D01000D36C403002A9984702AB9A
:100FB0009B89A0883900BB80FFF778FCBB88002B99
:100FC00000D048E7A3880AA90B804E80A37A0B7152
:100FD000E38BCB80238C0B81019BCB6065E71620D4
:100FE00002AB0A220021C01803F09AFDA38806AFC5
:100FF0007E803B80A38B0AAE102200213000BB8094
:1010000003F08EFD0123009833701C3080002D18F2
:101010006B681A00293211780022914205D018001D
:1010200039002C309B6B9847BA89B280BB89002B62
:101030000BD1BA68002A08D0B17901330B43B371E0
:10104000BB883381FB88F2607381A0883100FFF791
:101050002DFC00E790DF704792DF704794DF704708
:1010600070B500250400290020C0FDF745FF257656
:101070006583A583E5832584200070BD016810B5D4
:10108000020000290AD013004C1E89004068521843
:1010900010C3934204D0596802C3FAE701204042CA
:1010A00010BD016810B5020000290AD013004C1EC3
:1010B00089004068521810C3934204D0596802C393
:1010C000FAE70120404210BDF7B5040003251826B9
:1010D000636922685F33002A1CD01D706768042290
:1010E0000F49684603F000FD3B007343616901AAA4
:1010F000CB18180074300088763310801B8853801A
:1011000088886946FFF7AAFF002808D02000FFF76B
:10111000B5FFDDE71A78032A01D1023A1A70F7BD4C
:1011200034640200030000225C33F0B51A70020040
:101130000B788DB05D3204000392042B2DD8137010
:10114000A8220123002026005200A7185B42A050CD
:1011500001977B60BB60FB603B618D1C6036029039
:101160000492039B029A1B7893422BD9AB78002BF5
:1011700016D1049B0499E3585A1C6250019A9B00B3
:10118000D318029A5A60AA88EB88B282F382029B33
:101190000835013302931836E3E70423039ACEE7B8
:1011A000298807A8FDF7A8FE3200AB889C46EB888B
:1011B000059307AB83CB83C203CB03C26346B382E1
:1011C000059BE3E72300FC335B6D002B04D020007C
:1011D0005130FF30FFF778FF0DB0F0BDF7B50500D7
:1011E000042624276B692A685F33002A1AD0042258
:1011F0001E706C680E497C438918684603F074FCC5
:101200006B6901AA1C19C034618B118001315180B6
:1012100098886946FFF722FF002808D02800FFF7CA
:1012200040FFDFE71A78042A01D1023A1A70F7BDAD
:10123000346402000300F0B50A7889B004000F009E
:101240005E33042A3DD81A70B42300255B00E550B4
:101250002300012269335242FF335A609A60DA60F8
:101260001A61BE1C23005E331B78AB423BD924239A
:1012700020006B43C030C3189C46A36D318907938F
:10128000A3880693F3880593B378002B1BD1B42071
:10129000400023585A1C225020006930FF309B0028
:1012A000C3185D600A236B43059A01910092FB18F5
:1012B0009B79069A07996046FEF7A6FC01350A3627
:1012C000D0E70422BFE7338802910A2168466943C8
:1012D000059A7918019289790170069A07996046F2
:1012E000FEF7C8FCEAE72300FC33DB6E002B04D0DA
:1012F00020006930FF30FFF771FF09B0F0BD00003A
:101300007FB503005F331B780500032B2DD106004A
:101310002E4B0A685136FF369A4222D11022896834
:10132000684603F0E1FB3000FFF7A8FE18244443B1
:101330002C1923000122200060331A7069460F32F5
:10134000613003F0D1FB230021006E331A786D3435
:1013500023781202723113430B803000FFF7B4FE82
:101360007FBD3000FFF78AFEFAE7042BF8D10600B4
:10137000174B0A686936FF369A4223D189681022D2
:101380000331684603F0B0FB3000FFF78AFE2424E7
:1013900044432C19230001222000C4331A706946EB
:1013A0000F32C53003F0A0FB23002100D2331A789E
:1013B000D13423781202D63113430B803000FFF76B
:1013C0000DFFCDE73000FFF76CFEC9E7010010000C
:1013D0000100130010B5C368984710BD73B5050030
:1013E0000800A9802900002402265E310C704E708E
:1013F00001A90A804B80FFF72FFE10280DD006D8D8
:10140000A0420FD00634082808D00B2406E005249B
:10141000112803D0044B9842F7D10424210028005E
:10142000FDF794FD200076BD02300000F0B5040009
:10143000182689B023005F3301931B78012B68D1F4
:10144000250022005C355D322B78127893424ED213
:101450000021A71D03A8FDF74FFD03A93800FDF7E4
:1014600057FD002819D0E369002B23D1019B1B787D
:10147000012B1BD1636C002B18D0274B002B15D0F0
:101480002A78A1887243A2181300743276331B881D
:1014900012882000FFF7A2FFCCE7297838007143BB
:1014A00060316118FDF734FD0028DCD12B78013361
:1014B0002B70BFE7184B002BD8D0002103A8FDF7F5
:1014C0001BFD200003A93030FDF722FD0028CDD000
:1014D000200029781C30714360316118A36A984755
:1014E000C4E7A088FFF7B6FD002812D00EE0002A5E
:1014F0000FD0002B0DD05A1E182353430022E3189F
:1015000076331988054B2A809942EAD12000FFF7EB
:101510002FF909B0F0BDC04681C10100FFFF0000F6
:101520000300F0B55F3393B003931B780400022BE4
:1015300000D0BFE0050024220021953509A803F062
:10154000EFFAFF3509A8FFF78BFD09A92800FEF780
:1015500031F9011E1BD123005E331B78002B16D0FE
:101560002300D9222700DA331B885200013BA35203
:10157000303704A8FDF7C0FC04A93800FDF7C8FC0B
:10158000061E46D02000636C4430002B54D100234B
:10159000270001935E37039B3D78019A1B789542A3
:1015A00000D885E0022B00D084E0223353431E0094
:1015B0000293C0366B1EA6199A4244D12000953082
:1015C00022223100FF3003F08FFA002D00D173E0AA
:1015D0006B1E24255D436519C035AB8B01339BB26F
:1015E00022005C32117818224A430021A218763278
:1015F00012883970934208D209A90B804A80A088CA
:10160000FFF72AFD002855D00B212000FDF79EFC96
:1016100050E021009931FF313800FDF779FC0028B6
:10162000B5D0310009A8FDF767FCA01D09A9FDF799
:101630006FFC0028ABD1A5E7204B002BA7D02900D9
:10164000FFF7C8FEA3E72700029B0021E318E4335D
:101650005B8B3037013BF38304A8FDF74DFC04A9F5
:101660003800FDF755FC051E08D02000636C44309F
:10167000002B16D1019B0133DBB289E702993800B8
:10168000C4316118FDF744FC0028F3D0290009A8F3
:10169000FDF732FCA01D09A9FDF73AFC0028E9D1AD
:1016A000E3E7064B002BE5D03100FFF793FEE1E7BF
:1016B000022B8AD013B0F0BD014B91E781C101002C
:1016C000FFFF000002207047022070470020704793
:1016D0000020704700487047FFFF0000022070475D
:1016E0000220704702207047022070470220704796
:1016F0000220704702207047022070470220704786
:101700000220704702207047022070470220704775
:1017100000231360704700207047022070470220AA
:101720007047022070470220704702207047002057
:101730007047002070470020704702207047022049
:1017400070474160704781607047C16070470161B8
:1017500070474161704702207047022070470220A5
:101760007047022070470220704702207047022015
:10177000704790DF704766DF704748DF70475F3023
:101780000078431E9841C0B270470079704710300E
:1017900070471030704710B503689B6B9847FFF790
:1017A000ECFF10BDF7B50193036800915B6804007E
:1017B0001700984705000620002D38D123003A0075
:1017C0001C3343CA43C3FB68019AA3622300E5624A
:1017D000443343CA43C3019B1422DB680899236541
:1017E0006565A01D03F080F92000142209993030AE
:1017F00003F07AF9009B0121A38023005C331D8054
:10180000D9702A000098FFF7B4FF06002800002EC8
:101810000DD0236820009B6898470520112E06D024
:10182000034B9E4202D00130072E00D10420FEBDA2
:1018300002300000044B10B51A78002A03D00022B1
:101840001A70FDF737F910BD6C2C002070B5FC3014
:10185000C46D0500002C0DD1242001F045F8064B85
:1018600044608361054B8460C46004614461C46169
:101870000360E865E86D70BD10650200E465020074
:10188000082370B596B002AA137106AA029202AAA2
:10189000137310000EAB0D0004930024FDF700FE3F
:1018A0000726A04210D02C7116B070BD3000029BEC
:1018B000604301932A680199A30010185958072220
:1018C00003F012F90134E4B202AB1B79A34205D94B
:1018D0006B79A342EAD82C710020E5E72C7107262A
:1018E000002402AB29791B7B6118A34202D96B79D2
:1018F000994201DB2971EFE771432B685918049B6A
:101900000193019AA30098580134FDF7E5FDE4B274
:10191000E7E710B5FDF768FD10BD10B50800110030
:10192000FDF798FD10BD10B508001100FDF76EFD24
:1019300010BD10B5080011001A00029BFDF7E8FC6D
:1019400010BD00007FB503791548002B22D0154E3D
:10195000154C33782000002B1CD102AD2800FFF776
:101960000AFF002810D16B88592B0DD12B78AA883B
:10197000D91F012910D800920C4A2021200003F021
:1019800061FC0123337004E020220949200003F0A8
:10199000F9FC200004B070BD0092064AEDE7C04695
:1019A00010660200382E0020182E00203266020039
:1019B0002A6602004F66020070B503790400092010
:1019C000002B1DD0FDF7F0F803000520002B17D1E8
:1019D0002500FC35686D00280DD1E86D002810D178
:1019E000A86D002813D120001030FEF7A9FB0028B5
:1019F00006D1207104E003681B6A98470028ECD0E8
:101A000070BD03689B6A98470028E9D0F8E703682F
:101A1000DB6A98470028E6D0F2E770B50400E36976
:101A20002362206A002807D0C36821009847236AF0
:101A3000002BF4D01B69F3E7E069002804D00569A6
:101A400000F066FF2800F8E7E0616060A060E060F9
:101A50002061606170BD10B5FFF7DFFF062300282D
:101A600000D10300180010BD70B504000068002804
:101A700004D0056900F04CFF2800F8E7206070BD35
:101A800010B50400024B08C0FFF7EEFF200010BDA8
:101A90003065020010B50400FFF7F2FF200000F0EF
:101AA00037FF200010BD70B504000068002804D086
:101AB000056900F02DFF2800F8E7206070BD0000E8
:101AC00010B50400024B08C0FFF7EDFF200010BD69
